:100000000C9446000C9465000C9465000C946500FB
:100010000C9465000C9465000C9465000C946500CC
:100020000C9465000C9465000C9465000C946500BC
:100030000C9465000C94DE000C9465000C94650033
:100040000C9465000C9465000C9465000C9465009C
:100050000C9465000C9465000C9465000C9465008C
:100060000C9465000C9465000C9465000C9465007C
:100070000C9465000C9465000C9465000C9465006C
:100080000C9465000C9465000C94650011241FBE4F
:10009000CFEFD0E4DEBFCDBF11E0A0E0B1E0ECE1F6
:1000A000F5E000E00BBF02C007900D92A231B1074E
:1000B000D9F721E0A2E1B1E001C01D92AB31B20756
:1000C000E1F70E9460020C948C020C940000CF9324
:1000D000DF9300D01F92CDB7DEB789837B836A831D
:1000E00089818A3031F48A819B81BC018DE00E9434
:1000F000670080EC90E0FC018081882F90E08072A6
:100100009927892BB1F386EC90E02981FC012083AB
:1001100080E090E00F900F900F90DF91CF910895C5
:10012000CF93DF93CDB7DEB781E890E02BE0FC0101
:10013000208388E890E02DE730E0FC0131832083C4
:100140008FE690E022E0FC01208384E890E0FC014F
:100150001182108280910E0190910F01A0911001E7
:10016000B09111018093130190931401A093150194
:10017000B09316018FE590E02FE530E0F901208182
:100180002068FC0120830000DF91CF910895CF9378
:10019000DF93CDB7DEB781E890E0FC01108200006C
:1001A000DF91CF910895CF93DF93CDB7DEB781E094
:1001B000809312010000DF91CF9108951F920F925A
:1001C00000905F000F92112400905B000F922F931C
:1001D0003F934F935F936F937F938F939F93AF93CF
:1001E000BF93EF93FF93CF93DF93CDB7DEB78091AB
:1001F000130190911401A0911501B091160101977E
:10020000A109B1098093130190931401A0931501E2
:10021000B09316018091130190911401A0911501E2
:10022000B0911601892B8A2B8B2B91F40E94D3005D
:1002300080910E0190910F01A0911001B0911101D8
:100240008093130190931401A0931501B0931601AC
:100250000000DF91CF91FF91EF91BF91AF919F91FE
:100260008F917F916F915F914F913F912F910F905F
:1002700000925B000F9000925F000F901F90189506
:10028000CF93DF9300D000D0CDB7DEB769837A83F8
:100290008B839C8389819A81AB81BC8180930E0181
:1002A00090930F01A0931001B093110180910E0162
:1002B00090910F01A0911001B09111018093130151
:1002C00090931401A0931501B093160100000F90B4
:1002D0000F900F900F90DF91CF910895CF93DF9300
:1002E000CDB7DEB780911801909119018230910548
:1002F00009F451C08330910528F4009779F00197F3
:10030000C1F099C08430910509F477C0843091051B
:1003100008F45AC0059709F489C08DC010921A01DB
:100320001092170181E090E09093190180931801D9
:1003300087C080E290E0FC018081882F90E080956A
:1003400090959927892B01F580911701813031F41F
:1003500085E290E021E0FC0120830FC0809117012D
:10036000823031F485E290E022E0FC01208305C078
:1003700085E290E024E0FC01208381E090E090930E
:100380001901809318015CC082E090E090931901FC
:100390008093180155C080E290E0FC018081882F95
:1003A00090E0809590959927019739F482E090E04C
:1003B000909319018093180143C083E090E09093DB
:1003C0001901809318013CC080E290E0FC0180811B
:1003D000882F90E0809590959927892B39F483E0B8
:1003E00090E090931901809318012AC084E090E076
:1003F000909319018093180123C080E290E0FC01E2
:100400008081882F90E0809590959927019739F405
:1004100084E090E0909319018093180111C085E069
:1004200090E090931901809318010AC0109219016D
:100430001092180105C010921901109218010000C5
:1004400080911801909119018330910561F18430F8
:10045000910530F48130910549F0029731F12CC0BB
:100460008430910521F1059721F126C080911A0170
:10047000882361F08091170181508093170180914A
:1004800017018130C1F410921A0115C08091170133
:100490008F5F8093170180911701833061F481E0B1
:1004A00080931A0108C0000007C0000005C00000CA
:1004B00003C0000001C000000000DF91CF9108954B
:1004C000CF93DF93CDB7DEB784E290E02FEFFC014E
:1004D000208385E290E0FC01108281E290E0FC0143
:1004E000108282E290E02FEFFC012083109219012C
:1004F000109218016CE271E080E090E00E944001EF
:100500000E9490000E946E010000809112018823D9
:0C051000E1F310921201F6CFF894FFCF37
:10051C000000000200000000670000000000010065
:02052C000000CD
:00000001FF
